{
  "contractName": "SupplyChain",
  "abi": [
    {
      "constant": true,
      "inputs": [],
      "name": "skuCount",
      "outputs": [
        {
          "name": "",
          "type": "uint256"
        }
      ],
      "payable": false,
      "stateMutability": "view",
      "type": "function",
      "signature": "0x22702473"
    },
    {
      "constant": true,
      "inputs": [],
      "name": "owner",
      "outputs": [
        {
          "name": "",
          "type": "address"
        }
      ],
      "payable": false,
      "stateMutability": "view",
      "type": "function",
      "signature": "0x8da5cb5b"
    },
    {
      "constant": true,
      "inputs": [
        {
          "name": "",
          "type": "uint256"
        }
      ],
      "name": "items",
      "outputs": [
        {
          "name": "name",
          "type": "string"
        },
        {
          "name": "sku",
          "type": "uint256"
        },
        {
          "name": "price",
          "type": "uint256"
        },
        {
          "name": "state",
          "type": "uint8"
        },
        {
          "name": "seller",
          "type": "address"
        },
        {
          "name": "buyer",
          "type": "address"
        }
      ],
      "payable": false,
      "stateMutability": "view",
      "type": "function",
      "signature": "0xbfb231d2"
    },
    {
      "inputs": [],
      "payable": true,
      "stateMutability": "payable",
      "type": "constructor",
      "signature": "constructor"
    },
    {
      "payable": true,
      "stateMutability": "payable",
      "type": "fallback"
    },
    {
      "anonymous": false,
      "inputs": [
        {
          "indexed": true,
          "name": "sku",
          "type": "uint256"
        }
      ],
      "name": "ForSale",
      "type": "event",
      "signature": "0xa96ae0fc3224ebd79eebfe54bd130cc9cb94416cddd1f2386115e00b72532468"
    },
    {
      "anonymous": false,
      "inputs": [
        {
          "indexed": true,
          "name": "sku",
          "type": "uint256"
        }
      ],
      "name": "Sold",
      "type": "event",
      "signature": "0x92f64ca637d023f354075a4be751b169c1a8a9ccb6d33cdd0cb3520543995727"
    },
    {
      "anonymous": false,
      "inputs": [
        {
          "indexed": true,
          "name": "sku",
          "type": "uint256"
        }
      ],
      "name": "Shipped",
      "type": "event",
      "signature": "0xf00b9a5725b80c54016f42114f6ed7792d22eecb116011c4afac29c57bef6c95"
    },
    {
      "anonymous": false,
      "inputs": [
        {
          "indexed": true,
          "name": "sku",
          "type": "uint256"
        }
      ],
      "name": "Received",
      "type": "event",
      "signature": "0xa8142743f8f70a4c26f3691cf4ed59718381fb2f18070ec52be1f1022d855557"
    },
    {
      "constant": false,
      "inputs": [
        {
          "name": "_name",
          "type": "string"
        },
        {
          "name": "_price",
          "type": "uint256"
        }
      ],
      "name": "addItem",
      "outputs": [
        {
          "name": "",
          "type": "bool"
        }
      ],
      "payable": false,
      "stateMutability": "nonpayable",
      "type": "function",
      "signature": "0x62d6bbdf"
    },
    {
      "constant": false,
      "inputs": [
        {
          "name": "sku",
          "type": "uint256"
        }
      ],
      "name": "buyItem",
      "outputs": [],
      "payable": true,
      "stateMutability": "payable",
      "type": "function",
      "signature": "0xe7fb74c7"
    },
    {
      "constant": false,
      "inputs": [
        {
          "name": "sku",
          "type": "uint256"
        }
      ],
      "name": "shipItem",
      "outputs": [],
      "payable": false,
      "stateMutability": "nonpayable",
      "type": "function",
      "signature": "0xf61c899a"
    },
    {
      "constant": false,
      "inputs": [
        {
          "name": "sku",
          "type": "uint256"
        }
      ],
      "name": "receiveItem",
      "outputs": [],
      "payable": false,
      "stateMutability": "nonpayable",
      "type": "function",
      "signature": "0xa26be999"
    },
    {
      "constant": true,
      "inputs": [
        {
          "name": "sku",
          "type": "uint256"
        }
      ],
      "name": "getState",
      "outputs": [
        {
          "name": "",
          "type": "uint256"
        }
      ],
      "payable": false,
      "stateMutability": "view",
      "type": "function",
      "signature": "0x44c9af28"
    },
    {
      "constant": true,
      "inputs": [
        {
          "name": "_sku",
          "type": "uint256"
        }
      ],
      "name": "fetchItem",
      "outputs": [
        {
          "name": "name",
          "type": "string"
        },
        {
          "name": "sku",
          "type": "uint256"
        },
        {
          "name": "price",
          "type": "uint256"
        },
        {
          "name": "state",
          "type": "uint256"
        },
        {
          "name": "seller",
          "type": "address"
        },
        {
          "name": "buyer",
          "type": "address"
        }
      ],
      "payable": false,
      "stateMutability": "view",
      "type": "function",
      "signature": "0xad4b9cfb"
    }
  ],
  "bytecode": "0x6080604052336000806101000a81548173ffffffffffffffffffffffffffffffffffffffff021916908373ffffffffffffffffffffffffffffffffffffffff160217905550600060018190555061133a8061005b6000396000f3fe608060405260043610610099576000357c0100000000000000000000000000000000000000000000000000000000900463ffffffff168063227024731461009e57806344c9af28146100c957806362d6bbdf146101185780638da5cb5b14610202578063a26be99914610259578063ad4b9cfb14610294578063bfb231d2146103c3578063e7fb74c714610500578063f61c899a1461052e575b600080fd5b3480156100aa57600080fd5b506100b3610569565b6040518082815260200191505060405180910390f35b3480156100d557600080fd5b50610102600480360360208110156100ec57600080fd5b810190808035906020019092919050505061056f565b6040518082815260200191505060405180910390f35b34801561012457600080fd5b506101e86004803603604081101561013b57600080fd5b810190808035906020019064010000000081111561015857600080fd5b82018360208201111561016a57600080fd5b8035906020019184600183028401116401000000008311171561018c57600080fd5b91908080601f016020809104026020016040519081016040528093929190818152602001838380828437600081840152601f19601f820116905080830192505050505050509192919290803590602001909291905050506105a7565b604051808215151515815260200191505060405180910390f35b34801561020e57600080fd5b50610217610756565b604051808273ffffffffffffffffffffffffffffffffffffffff1673ffffffffffffffffffffffffffffffffffffffff16815260200191505060405180910390f35b34801561026557600080fd5b506102926004803603602081101561027c57600080fd5b810190808035906020019092919050505061077b565b005b3480156102a057600080fd5b506102cd600480360360208110156102b757600080fd5b8101908080359060200190929190505050610971565b60405180806020018781526020018681526020018581526020018473ffffffffffffffffffffffffffffffffffffffff1673ffffffffffffffffffffffffffffffffffffffff1681526020018373ffffffffffffffffffffffffffffffffffffffff1673ffffffffffffffffffffffffffffffffffffffff168152602001828103825288818151815260200191508051906020019080838360005b83811015610383578082015181840152602081019050610368565b50505050905090810190601f1680156103b05780820380516001836020036101000a031916815260200191505b5097505050505050505060405180910390f35b3480156103cf57600080fd5b506103fc600480360360208110156103e657600080fd5b8101908080359060200190929190505050610b1c565b604051808060200187815260200186815260200185600381111561041c57fe5b60ff1681526020018473ffffffffffffffffffffffffffffffffffffffff1673ffffffffffffffffffffffffffffffffffffffff1681526020018373ffffffffffffffffffffffffffffffffffffffff1673ffffffffffffffffffffffffffffffffffffffff168152602001828103825288818151815260200191508051906020019080838360005b838110156104c05780820151818401526020810190506104a5565b50505050905090810190601f1680156104ed5780820380516001836020036101000a031916815260200191505b5097505050505050505060405180910390f35b61052c6004803603602081101561051657600080fd5b8101908080359060200190929190505050610c3d565b005b34801561053a57600080fd5b506105676004803603602081101561055157600080fd5b8101908080359060200190929190505050611074565b005b60015481565b60006002600083815260200190815260200160002060030160009054906101000a900460ff1660038111156105a057fe5b9050919050565b60006001547fa96ae0fc3224ebd79eebfe54bd130cc9cb94416cddd1f2386115e00b7253246860405160405180910390a260c06040519081016040528084815260200160015481526020018381526020016000600381111561060557fe5b81526020013373ffffffffffffffffffffffffffffffffffffffff168152602001600073ffffffffffffffffffffffffffffffffffffffff168152506002600060015481526020019081526020016000206000820151816000019080519060200190610672929190611269565b50602082015181600101556040820151816002015560608201518160030160006101000a81548160ff021916908360038111156106ab57fe5b021790555060808201518160030160016101000a81548173ffffffffffffffffffffffffffffffffffffffff021916908373ffffffffffffffffffffffffffffffffffffffff16021790555060a08201518160040160006101000a81548173ffffffffffffffffffffffffffffffffffffffff021916908373ffffffffffffffffffffffffffffffffffffffff16021790555090505060018054016001819055506001905092915050565b6000809054906101000a900473ffffffffffffffffffffffffffffffffffffffff1681565b806002600381111561078957fe5b6002600083815260200190815260200160002060030160009054906101000a900460ff1660038111156107b857fe5b14151561082d576040517f08c379a00000000000000000000000000000000000000000000000000000000081526004018080602001828103825260148152602001807f5374617465206973206e6f74205368697070656400000000000000000000000081525060200191505060405180910390fd5b6002600083815260200190815260200160002060040160009054906101000a900473ffffffffffffffffffffffffffffffffffffffff168073ffffffffffffffffffffffffffffffffffffffff163373ffffffffffffffffffffffffffffffffffffffff16141515610907576040517f08c379a00000000000000000000000000000000000000000000000000000000081526004018080602001828103825260148152602001807f6d73672e73656e646572206e6f74206f776e657200000000000000000000000081525060200191505060405180910390fd5b60036002600085815260200190815260200160002060030160006101000a81548160ff0219169083600381111561093a57fe5b0217905550827fa8142743f8f70a4c26f3691cf4ed59718381fb2f18070ec52be1f1022d85555760405160405180910390a2505050565b60606000806000806000600260008881526020019081526020016000206000018054600181600116156101000203166002900480601f016020809104026020016040519081016040528092919081815260200182805460018160011615610100020316600290048015610a255780601f106109fa57610100808354040283529160200191610a25565b820191906000526020600020905b815481529060010190602001808311610a0857829003601f168201915b5050505050955060026000888152602001908152602001600020600101549450600260008881526020019081526020016000206002015493506002600088815260200190815260200160002060030160009054906101000a900460ff166003811115610a8d57fe5b92506002600088815260200190815260200160002060030160019054906101000a900473ffffffffffffffffffffffffffffffffffffffff1691506002600088815260200190815260200160002060040160009054906101000a900473ffffffffffffffffffffffffffffffffffffffff16905085858585858595509550955095509550955091939550919395565b6002602052806000526040600020600091509050806000018054600181600116156101000203166002900480601f016020809104026020016040519081016040528092919081815260200182805460018160011615610100020316600290048015610bc85780601f10610b9d57610100808354040283529160200191610bc8565b820191906000526020600020905b815481529060010190602001808311610bab57829003601f168201915b5050505050908060010154908060020154908060030160009054906101000a900460ff16908060030160019054906101000a900473ffffffffffffffffffffffffffffffffffffffff16908060040160009054906101000a900473ffffffffffffffffffffffffffffffffffffffff16905086565b80600073ffffffffffffffffffffffffffffffffffffffff166002600083815260200190815260200160002060030160019054906101000a900473ffffffffffffffffffffffffffffffffffffffff1673ffffffffffffffffffffffffffffffffffffffff1614151515610d3f576040517f08c379a000000000000000000000000000000000000000000000000000000000815260040180806020018281038252602a8152602001807f53656c6c65722061646472657373206973203078303b206974656d20646f657381526020017f206e6f742065786973740000000000000000000000000000000000000000000081525060400191505060405180910390fd5b60006003811115610d4c57fe5b6002600083815260200190815260200160002060030160009054906101000a900460ff166003811115610d7b57fe5b141515610df0576040517f08c379a00000000000000000000000000000000000000000000000000000000081526004018080602001828103825260148152602001807f5374617465206973206e6f7420466f7253616c6500000000000000000000000081525060200191505060405180910390fd5b6002600083815260200190815260200160002060020154803410151515610e7f576040517f08c379a00000000000000000000000000000000000000000000000000000000081526004018080602001828103825260198152602001807f6d73672e76616c7565206c657373207468616e2070726963650000000000000081525060200191505060405180910390fd5b826002600085815260200190815260200160002060030160019054906101000a900473ffffffffffffffffffffffffffffffffffffffff1673ffffffffffffffffffffffffffffffffffffffff166108fc60026000878152602001908152602001600020600201549081150290604051600060405180830381858888f19350505050158015610f12573d6000803e3d6000fd5b50336002600086815260200190815260200160002060040160006101000a81548173ffffffffffffffffffffffffffffffffffffffff021916908373ffffffffffffffffffffffffffffffffffffffff16021790555060016002600086815260200190815260200160002060030160006101000a81548160ff02191690836003811115610f9b57fe5b0217905550837f92f64ca637d023f354075a4be751b169c1a8a9ccb6d33cdd0cb352054399572760405160405180910390a2600060026000838152602001908152602001600020600201549050600081340390506002600084815260200190815260200160002060040160009054906101000a900473ffffffffffffffffffffffffffffffffffffffff1673ffffffffffffffffffffffffffffffffffffffff166108fc829081150290604051600060405180830381858888f1935050505015801561106b573d6000803e3d6000fd5b50505050505050565b806001600381111561108257fe5b6002600083815260200190815260200160002060030160009054906101000a900460ff1660038111156110b157fe5b141515611126576040517f08c379a00000000000000000000000000000000000000000000000000000000081526004018080602001828103825260118152602001807f5374617465206973206e6f7420536f6c6400000000000000000000000000000081525060200191505060405180910390fd5b6002600083815260200190815260200160002060030160019054906101000a900473ffffffffffffffffffffffffffffffffffffffff168073ffffffffffffffffffffffffffffffffffffffff163373ffffffffffffffffffffffffffffffffffffffff16141515611200576040517f08c379a00000000000000000000000000000000000000000000000000000000081526004018080602001828103825260148152602001807f6d73672e73656e646572206e6f74206f776e657200000000000000000000000081525060200191505060405180910390fd5b600280600085815260200190815260200160002060030160006101000a81548160ff0219169083600381111561123257fe5b0217905550827ff00b9a5725b80c54016f42114f6ed7792d22eecb116011c4afac29c57bef6c9560405160405180910390a2505050565b828054600181600116156101000203166002900490600052602060002090601f016020900481019282601f106112aa57805160ff19168380011785556112d8565b828001600101855582156112d8579182015b828111156112d75782518255916020019190600101906112bc565b5b5090506112e591906112e9565b5090565b61130b91905b808211156113075760008160009055506001016112ef565b5090565b9056fea165627a7a7230582047913463384c0ecbe568241b45e1d82c99ccfcc0e67ccb1346b45ce57fc741580029",
  "source": "pragma solidity ^0.5.0;\n\ncontract SupplyChain {\n\n  address public owner;\n  uint public skuCount;\n\n  mapping (uint => Item) public items;\n  \n  enum State {ForSale, Sold, Shipped, Received} \n    State current_state;\n\n  struct Item {\n    string name;\n    uint sku;\n    uint price;\n    State state;\n    address payable seller; \n    address payable buyer;\n  }\n\n  event ForSale (uint indexed sku);\n  event Sold (uint indexed sku);\n  event Shipped (uint indexed sku);\n  event Received (uint indexed sku);\n  \n  modifier isOwner () { require (msg.sender == owner, \"msg.sender not owner\"); _;}\n  modifier verifyCaller (address _address) { require (msg.sender == _address, \"msg.sender not owner\"); _;}\n  modifier paidEnough(uint _price) { require(msg.value >= _price, \"msg.value less than price\"); _;}\n  modifier checkValue(uint _sku) {\n    _;\n    uint _price = items[_sku].price;\n    uint amountToRefund = msg.value - _price;\n    items[_sku].buyer.transfer(amountToRefund);\n  }\n\n  modifier forSale (uint _sku) { \n    // Added to verify that the requested SKU item exists, since all items have a seller\n    require (items[_sku].seller != address(0), \"Seller address is 0x0; item does not exist\"); \n    require (items[_sku].state == State.ForSale, \"State is not ForSale\"); \n    _;\n    }\n  modifier sold (uint _sku) { require (items[_sku].state == State.Sold, \"State is not Sold\"); _;}\n  modifier shipped (uint _sku) { require (items[_sku].state == State.Shipped, \"State is not Shipped\"); _;}\n  modifier received (uint _sku) { require (items[_sku].state == State.Received, \"State is not Received\"); _;}\n  \n  constructor() public payable {\n    owner = msg.sender;\n    skuCount = 0;\n  }\n\n  function addItem(string memory _name, uint _price) \n    public \n    returns(bool)\n  {\n    emit ForSale(skuCount);\n    items[skuCount] = Item({name: _name, sku: skuCount, price: _price, state: State.ForSale, seller: msg.sender, buyer: address(0)});\n    skuCount = skuCount + 1;\n    return true;\n  }\n\n  /* Add a keyword so the function can be paid. This function should transfer money \n    to the seller, set the buyer as the person who called this transaction, and set the state\n    to Sold. Be careful, this function should use 3 modifiers to check if the item is for sale,\n    if the buyer paid enough, and check the value after the function is called to make sure the buyer is\n    refunded any excess ether sent. Remember to call the event associated with this function!*/\n  function buyItem(uint sku)\n    forSale(sku) \n    paidEnough(items[sku].price) \n    checkValue(sku)\n    payable\n    public \n  {\n    items[sku].seller.transfer(items[sku].price);\n    items[sku].buyer = msg.sender;\n    items[sku].state = State.Sold;\n    emit Sold(sku);\n  }\n\n  function shipItem(uint sku)\n    sold(sku) \n    verifyCaller(items[sku].seller)\n    public\n  {\n    items[sku].state = State.Shipped;\n    emit Shipped(sku);  \n  }\n\n  function receiveItem(uint sku)\n    shipped(sku) \n    verifyCaller(items[sku].buyer)\n    public\n  {\n    items[sku].state = State.Received;\n    emit Received(sku);  \n  }\n\n  function getState(uint sku) \n    view  \n    public \n    returns (uint)\n  { \n    return uint(items[sku].state); \n  }\n\n  /* We have these functions completed so we can run tests, just ignore it :) */\n  function fetchItem(uint _sku) public view \n    returns (string memory name, uint sku, uint price, uint state, address seller, address buyer) \n  {\n    name = items[_sku].name;\n    sku = items[_sku].sku;\n    price = items[_sku].price;\n    state = uint(items[_sku].state);\n    seller = items[_sku].seller;\n    buyer = items[_sku].buyer;\n    return (name, sku, price, state, seller, buyer);\n  }\n\n  // Fallback function - payanle to allow contract to receive ether\n  function () external payable {\n    revert();\n  }\n\n}\n\n",
  "sourcePath": "/home/oracle/ETH/supply-chain-ryanwdavies/contracts/SupplyChain.sol",
  "compiler": {
    "name": "solc",
    "version": "0.5.0+commit.1d4f565a.Emscripten.clang"
  },
  "schemaVersion": "3.0.0",
  "updatedAt": "2018-12-25T19:53:53.513Z",
  "devdoc": {
    "methods": {}
  },
  "userdoc": {
    "methods": {}
  }
}